:1006000000E0CD7FCE7F8CD08CE4A6A26A006B0088
:10061000FD33F2652676A6887A07DAB5A6A27A08AF
:10062000FE33F2652676A68E7A07DAB4A6926A18A9
:100630006B08DABFF00AF10AF20ADABF6A15267609
:10064000A6A5F255A6A2FC33F56583053300166214
:10065000841534001662852535001662660CF6187E
:10066000166A6A156B102676660E6A266B08F629DE
:10067000DAB5F00A1600F029DAB57A05F129DAB50B
:100680007A05F229DAB500EE2420F820240004FFD0
:1006900004FFFFFF070307FFFFC0C0C0C0C004C0C6
:0806A000C00000000000000092
:00000001FF
