:100600006500660067006C00260E265816306005EF
:100610006100A6A96A046B02DAB57A08F01E7101BE
:10062000410716261618A6A16A1C6B0CDAB800EE54
:10063000600FE09E6C003C001630E09E16306C01AE
:100640006004F0182658267E2658163000E0A6CC06
:100650006A1C6B0DDAB5169A6A116B198070266ADE
:100660008060266A8050266A00EEA69EF033F2650E
:10067000F129DAB57A05F229DAB57A0500EE476490
:10068000264C7501356400EE65007601366400EE97
:1006900066007701366400EE164CFF0A169A0000D9
:1006A00004FF81BDA5BDA581FFF794F78484ACA8A4
:1006B000BC90903D293D2D25EF08EF01EF7B4A7B53
:1006C0004243DE10D010DEEF484F414FF080F08003
:0106D00080A9
:00000001FF
