:1006000065006C052776266C274CFE0A274C26B819
:10061000262016146E01EEA1268C2676263C161492
:1006200061386219A796D12600EE4000A7964001D6
:10063000A79C4002A7A24003A7A800EE262AD12625
:100640006E048E9481E5D12641002650266600EE88
:10065000C902D126613862198195C003262AD126A4
:10066000300026C600EE3F0100EE16FC6A0A6B1A47
:10067000A7AEDAB500EEA7AEDAB5A7B3DAB5DAB54C
:10068000A7B8DAB5DAB5A7AEDAB500EE4D0F16A405
:100690006E058DE4A7AEDAB58BE5DAB5263C4D0FD5
:1006A000FC18168C4D0000EE6E058DE5A7AEDAB590
:1006B0008BE4DAB5263C16A4A80066386706D67621
:1006C0006630D67600EE66386706A800F51ED67648
:1006D0006E0685E4453C16E0A800F51ED67600EED1
:1006E00065006630A800F81ED6766E067806A8006B
:1006F000F81ED676A8006638D67600EEA7EE611012
:100700006206D126A7E861186206D126A7F4612007
:100710006206D126A7D061286206D126A7E2611021
:100720006210D126A7FA61186210D126A7D06120E5
:100730006210D126A7CA61286210D126A800F51E32
:10074000D676A800F81E6630D6761792A7D6611026
:100750006206D126A7DC61186206D126A7E86120CF
:100760006206D126A7CA61286206D126A7DC6130BD
:100770006206D12600EE6100621FA7BD414000EE77
:10078000D1217108177C470000EE6E0187E57606DF
:100790001786FE0A17920000000000000000040106
:1007A0000501818142241CFF8989898989FF0B15F4
:1007B00001200D07190E0A010B1501200CFF000086
:1007C000000000007E666C7860607E666C786C6607
:1007D0007E607E40607E3E403E0208787E181C1897
:1007E0001C183C424242423C1C667E6666663E40A5
:1007F0006066423E2C5454545454444444242C10B7
:100800003C428282423C1C280C080C083C420808EE
:10081000147E7C023C02067C0A127E0206027E40A6
:100820003C02067C3E407C42423CFE0211201420E9
:0C0830001C243C42423C1C2411000838EF
:00000001FF
