:1006000000E06E006D076B1D6C1C268E269E267802
:10061000266E6001F015F007300016162680491F7F
:1006200026346004E0A1265E7002E0A12666460141
:1006300026481612268A6002F018269E7DFF269E06
:100640004D00165C266E00EE6005F018269E7E01B9
:10065000269E4E63165C268A266E00EE165C267871
:100660007BFD267800EE26787B03267800EE69076E
:10067000C83D7802D89100EEA6BCDBC1A6BD00EE55
:10068000268A7901268A86F000EED89100EE63066C
:100690006400A6BED4317408444000EE1694A6C08F
:1006A00063376400FE33F265F129D3457305F229FF
:1006B000D3456300FD29D345A6BD00EEFC80FF7540
:0606C00000000000000034
:00000001FF
