:100600006B036A05A90CDAB56A09A911DAB56A0D96
:10061000A916DAB56A11A91BDAB56A15A920DAB5E7
:100620006A19A925DAB56B096A0BA92ADAB56A0F26
:10063000A92FDAB56A13A920DAB5A9006B036A21DC
:10064000DAB86A2ADAB86A33DAB86B0C6A21DAB82F
:100650006A2ADAB86A33DAB86B156A21DAB86A2A14
:10066000DAB86A33DAB8CE016D013E002880CE01D7
:100670006D023E002880CE016D033E002880CE0131
:100680006D043E002880CE016D053E002880CE011D
:100690006D063E002880CE016D073E002880CE0109
:1006A0006D083E002880CE016D093E0028801700AD
:1006B0004C4947485453244F555424627920446987
:1006C0006F6E2457696C6C69616D73205B7772691A
:1006D0007474656E24323031372D3031211332205D
:1006E00032323A31325A5D00000000000000000052
:1006F000000000000000636865636B5F6B65793A1A
:10070000FC0A4C0017006D0A8DC73F0017003C0122
:1007100017206D0128806D0228806D042880180044
:100720003C0217366D0128806D0228806D032880F9
:100730006D05288018003C0317486D0228806D0362
:1007400028806D06288018003C04175E6D01288003
:100750006D0428806D0528806D07288018003C05F1
:1007600017786D0228806D0428806D0528806D063D
:1007700028806D08288018003C06178E6D0328809D
:100780006D0528806D0628806D09288018003C07BB
:1007900017A06D0428806D0728806D082880180038
:1007A0003C0817B66D0528806D0728806D082880E5
:1007B0006D09288018006D0628806D0828806D0955
:1007C0002880180000000000000000000000000069
:1007D0000000000000000000000000000000000019
:1007E0000000000000000000000000000000000009
:1007F000000000000000636865636B5F77696E3A14
:100800008D108D218D318D418D518D618D718D8139
:100810008D913D0017006B136A03A934DAB76A0B98
:10082000A93BDAB76A13A942DAB76A1BA949DAB752
:10083000FC0A6100620063006400650066006700F6
:100840006800690000E016000000000000000000E1
:100850000000000000000000000000000000000098
:100860000000000000000000000000000000000088
:10087000000004546F67676C65427574746F6E3A5C
:100880006E0180DE800E800EB8826B056A2381E3E4
:1008900018D06B056A2C82E318D06B056A3583E3A8
:1008A00018D06B0E6A2384E318D06B0E6A2C85E394
:1008B00018D06B0E6A3586E318D06B176A2387E36E
:1008C00018D06B176A2C88E318D06B176A3589E348
:1008D000A908DAB400EE00EE0000000000000000FD
:1008E0000000000000000000000000000000000008
:1008F0000000000000000000737072697465733AB4
:10090000FF818181818181FFF0F0F0F08080808023
:10091000E0E0404040E0E080A4A0E0A0A4E0A4A08B
:10092000E040404040E080E024E0E0A0A4A0E0A05F
:10093000A4A0A4E0555555552D00FF7755555555A4
:1009400004FF774576457500FF404040044000E0D5
:00000001FF
