:100600006D8000E0690FA6FC65126B05660DD5656F
:10061000FB1E7508D565FB1E7508D565FB1E7508A4
:10062000D565E99E162226B868FF00E0651B690FB4
:100630006700E7A116447701470A6700F0079800B2
:10064000168A1632390F166289708190620526A8C3
:10065000A722F01ED5656800600526F26028F01517
:1006600016308A7081A0620526A8A722F01E7507A1
:10067000D5651674620A819026A880A490E016962B
:1006800080E580D250D0168E16928090167C26D6A9
:10069000162826E41628600AF018600A610FE1A106
:1006A0001720E0A11602169E63006000932016B684
:1006B0007301801416AC00EE600EF015CE7F6063FF
:1006C00080E580D250D016D2F007300016BC6E04100
:1006D00016D426F200EE00E0651CA710D567601F57
:1006E00026F200EE00E0651CA718D567601F26F211
:1006F00000EEF015F107310016F400EEF282B6922A
:10070000F34F484F48CF3C203C043CF080F014F0BD
:1007100014204080402014000C04060106040C0044
:1007200000E0F0909090F06024202470F010F080B1
:10073000F0F014F014F0A4A0F02024F080F014F0F5
:10074000F080F090F0F014101410F090F090F0F0B1
:0407500090F014F021
:00000001FF
