:100600006E236D022662FC0A4C0F16186A018EA535
:1006100026628DA54E0016826801E8A11626780193
:100620003804161A161885E085853F0116188E8540
:1006300026624E0016926970F915F9073900163ACC
:1006400098D01650878086D087654F0016507D045D
:100650008D853D00165A6D04160C8ED526626D04EC
:100660001618FA1800E0A750FE3363106B00F2650D
:10067000F029D3B57305F129D3B57305F229D3B5A4
:1006800000EEA6A260006115D015A6A76008D015DF
:100690001690A6AC60006110D015A6B16008D01508
:1006A00016A08B8989A9DBB2322A2AA68E8A8A8A69
:0606B000EEEE88EC2CEEDA
:00000001FF
