:1006000000E027B2A9F8F065300016126001A9F8E1
:10061000F055A9F9F055282A27A6A9FA6000F05547
:10062000A9F8F0658100A9F9F06550101634F70AB1
:10063000263616201600AA9FF71EF065400000EE31
:10064000879087046E1B8E753F0100EE809027888F
:1006500081A082B08070278881A5410600EE41FA12
:1006600000EEAA02F71EF06540FF00EE8E7030002B
:10067000277227A6809028BC897027A6AA02F91E97
:10068000F06581003101168E601EF01826C6310219
:100690001698601EF018271C310316A4601EF0186F
:1006A0002746271C310416AE601EF0182746310578
:1006B00016B8601EF01826F4310616C4601EF01835
:1006C00026C626F418E48090278880904B0000EE20
:1006D0004A0016DA6C0880C5289280906C0780C5A5
:1006E00028928090278880904A0600EE6C0680C58C
:1006F000289200EE8090278880904B3000EE4A00D0
:10070000170670062892809070072892809027889C
:1007100080904A0600EE7008289200EE80902788AC
:1007200080904A0600EE4B0017306C0680C5289278
:100730008090700128928090278880904B3000EE46
:100740007008289200EE8090278880904A0000EE82
:100750004B00175A6C0880C5289280906C0180C5A8
:1007600028928090278880904B3000EE7006289267
:1007700000EE810080E02788279CAA5F811E811EF1
:10078000811EF11EDAB800EEAA1EF01EF0658A0086
:100790008B006C078AC26C708BC200EE8AAE8AAE88
:1007A0008AAE8BB600EE80902788279CAA3ADAB8EA
:1007B00000EE600061006200630064006500660096
:1007C0006707A9FBF655AA02F655AA02F71EF655C9
:1007D000AA02F71EF71EF655AA02F71EF71EF71E0D
:1007E000F6556801480717FC2806A9FBF81EF055C6
:1007F000AA02F01E8080F055780117E428068900CF
:10080000A9FBF05500EEC0FF6100631B64004408C3
:100810001828811E8EF0800E8DF080E43D01182492
:10082000813480F47401180E00EEAA426A006B0055
:100830004A3818444B20183EDAB87B0818347A0836
:100840006B001830AA576B004B201852DAB87B089F
:100850001848A9F8F065F0296A3C6B10DAB568070A
:1008600078FF48001890A9FBF81EF065909018607A
:100870002788279C8E808EEE8EEE8EEEAA97DAB8B1
:1008800086F0DAB846011860AA5FFE1EDAB8186072
:1008900000EE8E002788279CAA02FE1EF06540FF0E
:1008A00000EE277260FFAA02FE1EF055A9FAF0655D
:1008B0007001A9FAF055AA4ADAB800EE8E0027882E
:1008C000279CAA02FE1EF06540FF00EE60FFAA0210
:1008D000FE1EF055A9FAF0657001A9FAF055AA4A72
:1008E000DAB800EEA9FAF065301B18F8A9F8F0653F
:1008F0007001A9F8F05500EE809027884B00191A76
:100900004A00191A8090610880152788279CAA52EE
:10091000DAB58EF0DAB54E0000EE809027884B00F5
:1009200019388090610780152788279CAA52DAB56C
:100930008EF0DAB54E0000EE809027884B00195AF1
:100940004A06195A8090610680152788279CAA526A
:10095000DAB58EF0DAB54E0000EE809027884A00B6
:1009600019788090610180152788279CAA52DAB5F2
:100970008EF0DAB54E0000EE809027884B30199843
:100980004A061998809070082788279CAA52DAB5E1
:100990008EF0DAB54E0000EE809027884B3019B407
:1009A000809070072788279CAA52DAB58EF0DAB5B6
:1009B0004E0000EE809027884B3019D44A0019D49D
:1009C000809070062788279CAA52DAB58EF0DAB597
:1009D0004E0000EE809027884A0619F08090700142
:1009E0002788279CAA52DAB58EF0DAB54E0000EEC1
:1009F0006000A9F8F05500EE0500000000000000BE
:100A000000000000000000000000000000000000E6
:100A100000000000000000000000000000000401D1
:100A2000060308050A101512171419162421262387
:100A300028252A3031323334353604080C3E0C1C5C
:100A40001814FF80808080808080000026140C14A1
:100A50002600000000000C80808080808080800064
:100A60000000000000000000042A00000000000058
:100A700004020402040200000422042204220000F2
:100A8000042004200420000000000000042A0000CC
:100A9000042A0000042A0000042A0422042A04076D
:100AA000000004F8F9FAFF0005060C00000004003D
:00000001FF
