:100600006A126B01611062006000A6B0D127F02968
:100610003000DAB571087A0831301624611072089A
:100620006A127B08A700F01EF05570013010160A100
:100630006A126B016C0062FFC0067002265272FFE4
:10064000320016386E006E00F00A26527E017E01DE
:10065000164884A085B086C0300216644501166431
:1006600075F876FC30081670451916707508760412
:100670003006167C4412167C74F876FF3004168817
:10068000442A168874087601A700F61EF0658100DA
:100690006000A700F61EF055A700FC1E8010F05564
:1006A000F129D455DAB58A408B508C6000EEEE5EAD
:0806B000FEFEFEFEFEFEFEFE52
:00000001FF
