:10060000181F0C08FF10387CFEFF0844F5464444D0
:100610002800000000000000000000000499A9A5C7
:10062000990000000000000000000000AB5552558A
:100630001B000000000000000000000030407010AF
:1006400060000000000000000000000082545454CC
:100650002C0000000000000000000000E62866A258
:10066000EC000000000000000000047FF0F6F6F04F
:10067000F6F6F67F00000000000004FFDFDFDFDF9A
:10068000DFDFC3FF00000000000004FF0A7676767B
:1006900076760AFF00000000000004FF76B6BAB6C6
:1006A000BAD6E6FF00000000000004FE013FFF3F55
:1006B000FFFF013F000000000000C0C0C0111D0886
:1006C00006140C381408261006120F0108080C62D4
:1006D00008F219F20B320412D300EEA206DAB67B4E
:1006E000FFDAB600EE60096109A2BED01700EE6025
:1006F0000561048E07A206DAB64E0589F081E08115
:10070000F2410522DB4E0522E500EE600461113A5C
:1007100008D015700C3040130136046104A208D0D3
:1007200015700C304013111604A2B11F112F65640F
:100730000C8408A208D01580285040133373073367
:1007400016132D6024611FA209D018700C304013BD
:10075000496004611FD01860096109A2BED017006A
:10076000EE600C610A6214630CA20ED01CF2112818
:10077000343038136B60010614A26AD01EF21128BF
:10078000343034137B60046104620CA208D01580FD
:10079000283040138D60046111360CD0158028304C
:1007A00040139B22CF00EE7BFE7C054C0B6D044D6D
:1007B000046C0000EE600461044D046005490561AD
:1007C00005801640056D0500EE49047B05600BE0D1
:1007D000A57AFF600DE0A57A056009E0A523B94D73
:1007E0000523AB00EE6104621F82AB80904F056170
:1007F000058016620882AB4F046005631D610461C9
:100800000483BB4F056105801640056805603F8A7B
:10081000063B0A00EE4A0567054A06670500EE67D3
:1008200004680469046A0E6B1116046D046E0423D7
:1008300061601422CF70FF3004143300E0230F22D4
:10084000EF22EF23C923E522EF22CF808080713091
:100850000514416014F01C22CF70FF3004145700BF
:04086000E014140F7D
:00000001FF
