:1002000000E0CD7FCE7F8CD08CE4A2A26A006B0090
:10021000FD33F2652276A2887A07DAB5A2A27A08BF
:10022000FE33F2652276A28E7A07DAB4A2926A18B9
:100230006B08DABFF00AF10AF20ADABF6A15227611
:10024000A2A5F255A2A2FC33F56583053300126224
:10025000841534001262852535001262660CF6188A
:10026000126A6A156B102276660E6A266B08F629EA
:10027000DAB5F00A1200F029DAB57A05F129DAB513
:100280007A05F229DAB500EE2020F820200000FFE0
:1002900000FFFFFF030303FFFFC0C0C0C0C000C0DA
:1002A000C00000000000000000000000000000008E
:00000001FF
