:1002000000E06E006D076B1D6C1C228E229E227812
:10021000226E6001F015F007300012162280491F8F
:1002200022346004E0A1225E7002E0A12266460151
:1002300022481212228A6002F018229E7DFF229E1E
:100240004D00125C226E00EE6005F018229E7E01C9
:10025000229E4E63125C228A226E00EE125C22788D
:100260007BFD227800EE22787B03227800EE69077E
:10027000C83D7802D89100EEA2BCDBC1A2BD00EE61
:10028000228A7901228A86F000EED89100EE630678
:100290006400A2BED4317408444000EE1294A2C09F
:1002A00063376400FE33F265F129D3457305F22903
:1002B000D3456300FD29D345A2BD00EEFC80FF7548
:1002C000000000000000000000000000000000002E
:00000001FF
