:100200006E236D022262FC0A4C0F12186A018EA541
:1002100022628DA54E0012826801E8A112267801A3
:100220003804121A121885E085853F0112188E8550
:1002300022624E0012926970F915F9073900123ADC
:1002400098D01250878086D087654F0012507D0469
:100250008D853D00125A6D04120C8ED522626D04FC
:100260001218FA1800E0A350FE3363106B00F26519
:10027000F029D3B57305F129D3B57305F229D3B5A8
:1002800000EEA2A260006115D015A2A76008D015EB
:100290001290A2AC60006110D015A2B16008D01518
:1002A00012A08B8989A9DBB2322A26A68E8A8A8A75
:1002B000EEEE88EC28EE00000000000000000000D8
:00000001FF
