:100200006A126B01611062006000A2B0D127F02970
:100210003000DAB571087A083130122461107208A2
:100220006A127B08A300F01EF05570013010120A0C
:100230006A126B016C0062FFC0067002225272FFEC
:10024000320012386E006E00F00A22527E017E01EA
:10025000124884A085B086C0300212644501126441
:1002600075F876FC3008127045191270750876041E
:100270003006127C4412127C74F876FF3004128827
:10028000442A128874087601A300F61EF0658100E6
:100290006000A300F61EF055A300FC1E8010F05570
:1002A000F129D455DAB58A408B508C6000EEEE5EB1
:1002B000FEFEFEFEFEFEFEFE00000000000000004E
:00000001FF
