:1002000012124A6F6E617321FFFF808080808080B0
:10021000808000E060016101623EA208D011D0211F
:1002200070083041121CA20A60026101623FD107CE
:10023000D2077007301E122E1274C4AACAAAA400D4
:10024000848A8E8AEA006A8A8C8A6A00AAAEAEAA7A
:100250004A00EE84C484E4006A8A8E8A6A00A23A64
:10026000620CD01B7008F21ED01B7008F21ED01B4F
:1002700070F000EEC01FC10F70067103225E621E97
:10028000F215F2073200128C225E1274620BE29EAB
:100290001282225E12D4F870707070200003A29651
:1002A000D01600EEA48CF255A29CF1656206E29E87
:1002B00012B8229E7001229E6204E29E12C4229E07
:1002C00070FF229E3F00139AA29CF155A48CF26508
:1002D00000EE1919A3EC601D8100820083008400E8
:1002E000F455A29C60206103F1556D0D6E0013243E
:1002F00062026300A3ECF31EF165A20AD027D127A6
:100300003F00139A80D4D027801081D4D1273F009A
:10031000139AA3ECF31EF05522A472077301330461
:1003200012F400EE61026200A3ECF21EF065A20A74
:10033000D01780D4D0177107720132041328A29C01
:10034000F165A296D01622F0A3F0F065C10271FF0C
:10035000801440026003402E602DA3F0F0557E0112
:10036000601F81E08102311F134661026200A3EC2D
:10037000F21EF06580D4A20AD01770FFD017710763
:1003800072013204136E7DFF134666884828C64CFE
:10039000AAACAA4AE088C088E000601EF018800E6F
:1003A000F015F007300013A200E0AE00FE336B0D35
:1003B0006A0D6C05A38ADAB57A08FC1EDAB57A08EC
:1003C000FC1EDAB5AE00F265F0297A08DAB5F1293B
:1003D0007A05DAB5F2297A05DAB56C14FC15FC0752
:1003E0003C0013DE6C0BEC9E13AE1200000000000C
:00000001FF
