:1002000000E06A0022626380228A6514C003C10391
:10021000C2036400840484148424225A12A46390C8
:100220002282E4A1122C360076FF121E2294631063
:100230002282229A6380228A00E08A64226275FF09
:100240004500124A6360228A120C6412F418631A81
:10025000228A74FE3400124C1258681069132270FE
:1002600000EE68306900A2B0FA33F265227000EE49
:10027000F029D8957806F129D8957806F229D895ED
:1002800000EE73FF3300128200EEF315F307330024
:10029000128C00EE6302F31800EE6816690AF42966
:1002A000D89500EE660A63802282E4A1122C121E09
:00000001FF
