:1074000030060C1B07D49ABF8AAF4FFF21330A2FD7
:10741000F8005F9ABF8AAFF874BDF899ADF800A77D
:10742000D403063B31F874BFF888AFD40333C003EC
:1074300003F874BFF8AEAFF800BCF806ACD403098B
:10744000F874B9F8AEA949BF49AF49BC49ACD403F7
:1074500009D40312F874B9F8AEA9F874BFF8B8AF3C
:1074600049BD49ADD4FF4BF8205F1F49BD49ADD49C
:10747000FF4BF80D5F1FF80A5F1FF8005F1FF874DD
:10748000BFF8B8AFD40333D546696C65206E6F740E
:1074900020666F756E640A0D000000000A74BA0061
:1074A00000040000003900A0000000E800007400A3
:00000001FF
