:10000000f82fa2f808b2f80fa6f800b6c0ff3fe23a

:10001000f8eaaff802bfd4ff09f800aabad4034c3b

:10002000d402b9d4ff6c3b2a79d19ad402cc8ad4b9

:1000300002ccd402b54aa9d402cc89faf0f6f6f67d

:1000400052f6f4fc46a3c00076c0009bc000a3c0db

:1000500000abc000e9c000f2c00104c00131c00122

:100060009fc001a8c001b1c001bac0022dc001c328

:10007000c001ccc001d589fa0f3a86f88caff803dd

:10008000bfd4ff093023f899aff803bfd4ff098923

:10009000fa0fafd402c4d402b93023f8a5aff803e5

:1000a000bf308cf8b1aff803bf308cd402b50ad49e

:1000b00002ccd402b5d402b5d402b5d402b5f84fff

:1000c000aff804bf89fa0f32d0fcff1f1f1f30c7e3

:1000d0004fd4ff034fd4ff034fd4ff03d402b59a8c

:1000e000d402cc4ad402cc3096f8bdaff803bfc0de

:1000f000008cf8c9aff803bfc0008cf842aff80419

:10010000bfc0008189fb68c200fbfa0f3a17f81dd7

:10011000aff804bfc00081fd07f82aaff804bf3371

:1001200027f836aff804bfd4ff0989d402dac0003b

:1001300096f800b98952f87cf53253f87df53253c0

:10014000f87ff53253d402b5d402b5d402b5d40247

:10015000b53065d402b5f801b90ad402ccd402b5e1

:10016000d402b53068d402b5d402b5d402b5f87f54

:10017000aff804bf89fa0f3281fcff1f1f1f1f3029

:10018000774fd4ff034fd4ff034fd4ff034fd4ff67

:100190000399ca0096d402b54ad402ccc00096f89e

:1001a000d5aff803bfc0008cf8e1aff803bfc000c3

:1001b0008cf8edaff803bfc0008cf8f9aff803bfbf

:1001c000c0008cf805aff804bfc0008cf811aff880

:1001d00004bfc0008cf800b989fbfe32ec89fa0834

:1001e00032ecd402b5b90ad402cc30f5d402b5d47d

:1001f00002b5d402b5d402b5d402b5d402b5d40246

:10020000b5f8ffaff804bf89fa0f3213fcff1f1fc8

:100210001f300a4fd4ff034fd4ff034fd4ff03997d

:10022000c20096d402b54ad402ccc00096f800b9f8

:100230008952f8c4f5326bf8c5f5326bf8c6326beb

:10024000f8c7326bf8cc326bf8cd326bf8ce326b2c

:10025000f8cf326bf801b9d402b54ad402cc0ad433

:1002600002cc2ad402b5d402b53080d402b5d4026f

:10027000b5d402b5d402b5d402b5d402b5d402b512

:10028000f8bfaff804bf89fa0f3293fcff1f1f1f9e

:1002a000d4ff0399c20096d402b54ad402cc4ad4f2

:1002b00002ccc00096f82030c0f80dd4ff03f80a35

:1002c000d4ff03d5f852d4ff038f30daaf8ffaf0a2

:1002d000f6f6f6f6d402da8ffa0ffa0ffc3052fd7a

:1002e000390233e6fc07d4ff03d50d0a313830322a

:1002f00020446973617373656d626c657220563159

:1003000020627920416c2057696c6c69616d7320a3

:10031000616c7740616c2d77696c6c69616d732ecf

:10032000636f6d0d0a537461727420416464726569

:1003300073733f009af6ba8a76aa9af6ba8a76aab0

:100340009af6ba8a76aa9af6ba8a76aad4ff06a943

:10035000fb08323489fb0d328b8afeaa9a7eba8a58

:10036000feaa9a7eba8afeaa9a7eba8afeaa9a7ec5

:10037000ba89fd3a893b7bfcd0307ffadffcc95259

:100380008af4aaf800529a74ba304cd52020202062

:1003900020202049444c0d0a00202020202020202d

:1003a0004c444e200020202020202020494e432075

:1003b0000020202020202020444543200020202011

:1003c000202020204c4441200020202020202020dc

:1003d000535452200020202020202020474c4f2022

:1003e00000202020202020204748492000202020d5

:1003f00020202020504c4f20002020202020202092

:100400005048492000202020202020205345502003

:10041000002020202020202053455820002020208c

:10042000202020204952580d0a0020202020202082

:10043000204f5554200020202020202020494e50bd
:100440002000202020202020203f3f3f0d0a004296

:100450005220425120425a204244464231204232e8

:1004600020423320423420424d20424e51424e5ac7

:10047000424e46424e31424e32424e33424e34524a

:10048000455420444953204c445841535458444106

:100490004443205344422053485243534d42205337

:1004a0004156204d41524b52455120534551204118

:1004b0004443495344424953484c43534d42494ca9

:1004c0004252204c4251204c425a204c4244464e0b

:1004d0004f50204c534e514c534e5a4c534e464e57

:1004e0004c42524c424e514c424e5a4c424e464c5b

:1004f0005349454c5351204c535a204c5344464c7d

:1005000044584f5220414e44584f52414444534462

:1005100020534852534d204c44494f5249414e4973

:0f05200058524941444953444953484c534d495b

:00000001ff
