:1002000069006E0100E06D016A016B018CD08CE227
:100210004C00122288D022403A4012226A017B060A
:100220003C3F7D013D3F120CF00A400589E48EE41D
:100230003E4012046A1C6B0D889000E02240123E82
:10024000A296F833F2652256DAB57A048120225656
:10025000DAB57A0500EE8310833483348314A26404
:10026000F31E00EEE0A0A0A0E04040404040E020AF
:10027000E080E0E020E020E0A0A0E02020E080E0BE
:1002800020E0E080E0A0E0E020202020E0A0E0A04E
:10029000E0E0A0E020E0000000000000000000001E
:00000001FF
