:1002000000E0A40863006400651FD341D351730864
:1002100043401216120A63006401653FA409D34AE1
:10022000D54A740A441F122A121EA41363116406CD
:10023000D347A41A7308D347A4217308D347A4282B
:100240007308D347A42F630E6414D347A4367308EE
:10025000D347A43D7308D347A4447308D347A44BA2
:100260007308D347600FE0A1126C126669036A0439
:100270006B016C006D0F4B0B6B0A2284600EE0A1CA
:10028000130E127E00E0A40863006400651FD341D2
:10029000D35173084340129A128E63006401653F84
:1002A000A409D34AD54A740A441F12AE12A2A42F3D
:1002B000630A640CD347A4367308D347A43D73087C
:1002C000D347A4447308D347A44B7308D3474B01C7
:1002D000A4524B02A4594B03A4604B04A4674B05E2
:1002E000A46E4B06A4754B07A47C4B08A4834B0952
:1002F000A48A4B0AA4917305D3474903A49C4902DD
:10030000A49E4901A4A060026102D01200EE231C49
:10031000A49ADCD2600FE09E1316135800E0A49854
:100320004B01631E4B0263284B0363324B0463375C
:100330004B05633C4B0663414B0763464B08634BDD
:100340004B0963504B0A6355C434740AC61FD46109
:1003500073FF43FF00EE1348DCD26001E0A17DFF94
:100360006004E0A17D017C02DCD24F0113964C3E7B
:10037000137E6005F015F007300013761358DCD2B9
:100380006C006005F0187AFF3A00135A6A046C009A
:100390006D0F7B0112766008F018600FE0A113A2C8
:1003A000139C79FF6C006D0F6A04490013B422841A
:1003B000600E127E00E0A40863006400651FD34154
:1003C000D3517308434013CA13BE63006401653FF1
:1003D000A409D34AD54A740A441F13DE13D2A4A237
:1003E00064086314D3477308A4A9D3477308A4B05F
:1003F000D34763146411A4B7D3477308A4BED3478B
:10040000A4C57308D3471406FF8080808080808055
:10041000808080FB8282FB0A0AFAEF2828EF080816
:1004200008BEA0A0A0A0A0BEF88080F88080F8FA46
:100430008282FA8282830F0202020202EFBE202031
:10044000262222BE8B8888F8888888E08080808079
:100450008080080808080808083E02023E20203E66
:100460003E02023E02023E2222223E0202023E20C2
:10047000203E02023E3E20203E22223E3E02040852
:100480001010103E22223E22223E3E22223E020236
:100490003E2F29292929292F8000E0E0DBDBD8D84D
:1004A000C0C0FB8282838A8AFAED2A28E82828289D
:1004B000BEA0A0BEA0A0BEFA8A8A8A8A89F82F2888
:1004C000282F28488FBE2222BE2824A20000000028
:00000001FF
